:020000040000FA
:1000000021009513210006288231042AFC30990032
:1000100051301A05513C031D082820008C1D1C2856
:08002000210095178231002A2E
:0800380090309B0021008E11A5
:100040003130200098006A213D008E013D008E1560
:100050008E1D27282000111861213D00101C332817
:100060006A213D0010103D00901D2A280F088700CE
:10007000901120007839031D3F2841203328D720D4
:1000800033280719A72820083C39343C031D63286E
:100090003010A013A4133808B81F301406303902EA
:1000A00003197928053039020319982809303902D3
:1000B00003199A28083039020319A0283D000E12AE
:1000C00020000C3072200C30A0000830A100A017D6
:1000D00008003D000E12200030187528B520483069
:1000E00064204830A400A4170800A413A5010C3014
:1000F000702802303B020319892803303B020319A0
:100100008D2801303B02031D5E28AB30B100123058
:100110008E28BD30B10043308E280301B200BF08E5
:10012000031D69283E02031869283E08B2006928A9
:10013000B01469283011BA08031D3015CF20692882
:10014000C9303019013EB1000130B20069283018C1
:10015000AE28B5200830241F09177228B01C0800EB
:10016000B0103A083D0096000800A413A501B2089B
:100170000319080031088400813085002030860092
:10018000203087000301083C0319CC2812001E0010
:10019000A50A2508B20BC3280408B10008002000F6
:1001A000E6200301AD01AC05AC06AC1708004030F9
:1001B000071A08000719D228A9080319E628AC1362
:1001C000EB202000C9000130AD00AC174030A90081
:1001D000A801A81708000430290203191729403084
:1001E000290203192B29023029020319122901308F
:1001F00029020319FC28023452304A02031D02343A
:100200003D008E010000000022008E113030F10010
:100210002000111C0E291110F10381317108031DFA
:100220000829010056304A02031D02340A344C08E2
:10023000C8004D0886004A0887004B08230092003A
:100240000708910045300602031D01341430950063
:10025000592115110134480886002A3084002030C5
:100260008500243023009500203087001200860787
:10027000930012008607940087030319422959212D
:10028000910A362995018608031D03341515592155
:100290009501871615140000000011001402031DBB
:1002A000043411001302031D04349103870B4A29FF
:1002B000013455309600AA309600951400000000D5
:1002C000080022008E1966298E1567298E112000DC
:1002D000111008003D00930190019B019C019D01BC
:1002E0009E019F0197011430910009309200840112
:1002F000203085006A30870000301A00870B7D2986
:100300003D000E1796010E120E13901D8A299011B2
:1003100060218529163098001E3099001A309A0005
:1003200020001830A2002030A6002A30AA00293070
:10033000AE006A30B6002030A300A700AB00AF00CB
:04034000B700632877
:0A0356001234013400340234023482
:10036000003400340834D83404344334F5340134D0
:10037000003400340034003401340934023443348E
:10038000003402340134003480343234093404340B
:1003900000340034013402340234013400340534B2
:1003A000243400341034013404342434023402344C
:1003B0000534243406340034013405342434013443
:1003C00000340134073405348234033408340034F3
:1003D0007F34093404340134003402340A340034E4
:1003E000003400340734053481340234403400349E
:1003F000003407340534013402344034003400340E
:020000040001F9
:02000E008C0F55
:02001000CE1F01
:00000001FF
